:020000040000FA
:020000001F28B7
:08000800FD000308FE000A08D8
:10001000FF000F30A300A400A30B0C28A40B0C2896
:10002000051D1728A00A0B3020020319A0018B1010
:100030007F088A007E088300FD0E7D0E0900903047
:100040008B00831603138101831203179E0183160D
:100050000313860186018316031385010515950197
:100060001515870183120317990183120313A00149
:100070008701831203132008013A031966288312AB
:1000800003132008023A03196C282008033A0319C5
:1000900071282008043A031976282008053A031924
:1000A0007B282008063A031980282008073A0319FC
:1000B00085282008083A03198A282008093A0319D4
:1000C0008F2820080A3A0319992839288601803098
:1000D000A20022088700A2284030A2002208870040
:1000E000A2282030A20022088700A2281030A200F7
:1000F00022088700A2280830A20022088700A22830
:100100000430A20022088700A2280230A2002208A0
:100110008700A2280130A20022088700A2288312AB
:1001200003138701831203132030A50025088600DE
:10013000A22883120313831203130130A50025089C
:060140008600A228392808
:02400E00E4309C
:00000001FF
